:100000000C942A000C9447000C9447000C94470071
:100010000C9447000C9447000C9447000C94470044
:100020000C9447000C9447000C9447000C94470034
:100030000C9447000C9447000C9447000C94470024
:100040000C9447000C9447000C9447000C94470014
:100050000C94470011241FBECFE5D8E0DEBFCDBF12
:1000600011E0A0E6B0E0E0E2FFE102C005900D92F1
:10007000A039B107D9F711E0A0E9B1E001C01D92A4
:10008000A23CB107E1F70E94840E0C948E0F0C94F1
:100090000000A0E0B0E0EFE4F0E00C94570FDC01CA
:1000A0002B01FA019C91923008F439C1EB0188814F
:1000B000823008F433C1943069F4843009F02FC1E0
:1000C00011969C9111978981981709F428C1A8E786
:1000D000B0E025C1843009F421C18230A9F4923006
:1000E00009F01DC19A01AD0188E0EA010990AE0155
:1000F000E90109929E018150C1F7E20189811196BF
:100100009C918923818308C1923009F407C112961A
:100110002D903C901397EB018A819B811496AD90B2
:10012000BD90CD90DC901797EC80FD800E811F81F3
:100130009101281B390BB90137FF04C066277727C7
:10014000621B730B603271050CF061C0121613064E
:100150006CF537014801062E04C096948794779475
:1001600067940A94D2F721E030E040E050E004C008
:10017000220F331F441F551F6A95D2F7215030407C
:10018000404050402E213F2140235123211531056D
:100190004105510521F021E030E040E050E07901D7
:1001A0008A01E628F728082919293CC0232BD1F118
:1001B000260E371E35014601062E04C096948794FC
:1001C000779467940A94D2F721E030E040E050E061
:1001D00004C0220F331F441F551F6A95D2F72150C8
:1001E0003040404050402A213B214C215D212115C7
:1001F00031054105510521F021E030E040E050E0BB
:1002000059016A01A628B728C828D9280BC0821529
:1002100093052CF01C01AA24BB24650103C0EE2425
:10022000FF24870111969C91D20111968C91981709
:1002300009F445C0992339F0A80197012A193B090F
:100240004C095D0906C0A60195012E193F09400B16
:10025000510B57FD08C011823382228224833583DB
:10026000468357831DC081E08183338222828827A1
:100270009927DC01821B930BA40BB50B8483958318
:10028000A683B7830DC0220F331F441F551F24833D
:100290003583468357838281938101979383828339
:1002A0002481358146815781DA01C9010197A1096D
:1002B000B1098F5F9F4FAF4FBF4328F30BC09183AE
:1002C00033822282EA0CFB1C0C1D1D1DE482F58288
:1002D0000683178383E0808324813581468157819B
:1002E00057FF1AC0C901AA2797FDA095BA2F8170A0
:1002F0009070A070B0705695479537952795822BD2
:10030000932BA42BB52B84839583A683B7838281FB
:100310009381019693838283DF0101C0D201CD01D5
:10032000CDB7DEB7E2E10C94730FA0E2B0E0EBE9E9
:10033000F1E00C94630F69837A838B839C832D8314
:100340003E834F835887E9E0EE2EF12CEC0EFD1E24
:10035000CE010196B7010E94CF058E010F5E1F4F9F
:10036000CE010596B8010E94CF058A8991E08927C0
:100370008A8BC701B801AE01475E5F4F0E944900FA
:100380000E94FA04A096E6E00C947F0FA0E2B0E091
:10039000ECECF1E00C94630F69837A838B839C838C
:1003A0002D833E834F835887F9E0EF2EF12CEC0E1E
:1003B000FD1ECE010196B7010E94CF058E010F5E92
:1003C0001F4FCE010596B8010E94CF05C701B801A5
:1003D000AE01475E5F4F0E9449000E94FA04A0965A
:1003E000E6E00C947F0FA0E2B0E0E9EFF1E00C94BE
:1003F000570F69837A838B839C832D833E834F833E
:100400005887CE010196BE01675F7F4F0E94CF05DE
:10041000CE010596BE016F5E7F4F0E94CF05998584
:10042000923088F089898230C8F0943019F4823093
:1004300051F404C0843029F4923081F488E790E0CC
:10044000C6C0923049F420E09A858A89981321E049
:100450002A87CE010996BBC0823049F420E09A85F4
:100460008A89981321E02A8BCE014196B0C02D8451
:100470003E844F8458886D887E888F88988CEE24BF
:10048000FF248701AA24BB24650140E050E060E01E
:1004900070E0E0E0F0E0C10181709070892BE9F03C
:1004A000E60CF71C081D191D9A01AB012A0D3B1D16
:1004B0004C1D5D1D80E090E0A0E0B0E0E614F70484
:1004C0000805190520F481E090E0A0E0B0E0BA0151
:1004D000A901480F591F6A1F7B1FAA0CBB1CCC1C0B
:1004E000DD1C97FE08C081E090E0A0E0B0E0A82A03
:1004F000B92ACA2ADB2A3196E032F10549F0660CA6
:10050000771C881C991C5694479437942794C3CF22
:10051000FA85EA892B893C898B859C85280F391FB0
:100520002E5F3F4F17C0CA0181709070892B61F018
:1005300016950795F794E79480E090E0A0E0B0E886
:10054000E82AF92A0A2B1B2B76956795579547952C
:100550002F5F3F4F77FDE7CF0CC0440F551F661F3D
:10056000771F17FD4160EE0CFF1C001F111F21506B
:100570003040403090E0590790E0690790E47907F7
:1005800060F32B8F3C8FDB01CA018F779070A070D6
:10059000B07080349105A105B10561F447FD0AC032
:1005A000E114F1040105110529F0405C5F4F6F4F24
:1005B0007F4F40781A8EFE1711F081E08A8F4D8FA1
:1005C0005E8F6F8F78A383E0898FCE0149960E945A
:1005D000FA04A096E2E10C94730FA8E1B0E0E3EF17
:1005E000F2E00C945F0F69837A838B839C832D8365
:1005F0003E834F835887B9E0EB2EF12CEC0EFD1EA5
:10060000CE010196B7010E94CF058E010F5E1F4FEC
:10061000CE010596B8010E94CF052985223008F445
:100620007EC03989323010F4B8017CC08A859A893D
:1006300089278A87243011F0223031F4231709F0FA
:100640006EC068E770E06EC0343039F41D861E86D7
:100650001F86188A1C861B8604C0323021F484E071
:100660008987B7015FC02B853C858B899C89281BB6
:10067000390B3C872B87ED84FE840F851889AD8864
:10068000BE88CF88D88CEA14FB040C051D0540F405
:10069000EE0CFF1C001F111F215030403C872B87A0
:1006A00020E030E040E050E080E090E0A0E0B0E406
:1006B00060E070E0EA14FB040C051D0540F0282BF7
:1006C000392B4A2B5B2BEA18FB080C091D09B69540
:1006D000A79597958795EE0CFF1C001F111F6F5F64
:1006E0007F4F6F31710531F7DA01C9018F77907053
:1006F000A070B07080349105A105B10561F427FDAB
:100700000AC0E114F1040105110529F0205C3F4FF6
:100710004F4F5F4F20782D873E874F87588BBE0104
:10072000675F7F4FCB010E94FA046896EAE00C9461
:100730007B0FA8E1B0E0EFE9F3E00C94630F69836D
:100740007A838B839C832D833E834F83588789E0F4
:10075000E82EF12CEC0EFD1ECE010196B7010E9491
:10076000CF058E010F5E1F4FCE010596B8010E9486
:10077000CF058985823040F08989823028F0C70111
:10078000B8010E94470601C081E06896E6E00C943B
:100790007F0FA8E1B0E0EFECF3E00C94630F698306
:1007A0007A838B839C832D833E834F83588789E094
:1007B000E82EF12CEC0EFD1ECE010196B7010E9431
:1007C000CF058E010F5E1F4FCE010596B8010E9426
:1007D000CF058985823040F08989823028F0C701B1
:1007E000B8010E94470601C081E06896E6E00C94DB
:1007F0007F0FA8E0B0E0EFEFF3E00C94600F9B01F7
:10080000AC0183E08983DA01C9018827B7FD8395AC
:100810009927AA27BB27B82E211531054105510577
:1008200019F482E089833AC08823A9F0203080E05F
:10083000380780E0480780E8580729F460E070E056
:1008400080E09FEC30C0EE24FF248701E21AF30A17
:10085000040B150B02C079018A018EE1C82ED12C40
:10086000DC82CB82ED82FE820F831887C801B7013C
:100870000E94AB0401971816190684F4082E04C0D0
:10088000EE0CFF1C001F111F0A94D2F7ED82FE82AE
:100890000F831887C81AD90ADC82CB82BA82CE01AC
:1008A00001960E94FA042896E9E00C947C0FACE0D3
:1008B000B0E0EDE5F4E00C94670F69837A838B83F5
:1008C0009C83CE010196BE016B5F7F4F0E94CF05D6
:1008D0008D81823061F1823050F1843021F48E813B
:1008E000882351F12EC02F81388537FD20C06E81BD
:1008F0002F3131051CF06623F9F023C08EE190E022
:10090000821B930B29853A854B855C8504C05695DF
:100910004795379527958A95D2F76623B1F050957C
:100920004095309521953F4F4F4F5F4F0EC020E0CF
:1009300030E040E050E009C02FEF3FEF4FEF5FE7BE
:1009400004C020E030E040E050E8B901CA012C9634
:10095000E2E00C94830FEF92FF920F931F937B01C1
:100960008C0180E0E81680E0F80681E0080780E06E
:10097000180788F48FEFE816F1040105110531F02E
:1009800028F088E090E0A0E0B0E017C080E090E0C0
:10099000A0E0B0E012C080E0E81680E0F80680E059
:1009A000080781E0180728F088E190E0A0E0B0E0B7
:1009B00004C080E190E0A0E0B0E020E230E040E060
:1009C00050E0281B390B4A0B5B0B04C016950795AA
:1009D000F794E7948A95D2F7F701E058FF4F8081AA
:1009E000281B310941095109C9011F910F91FF903D
:1009F000EF900895DF92EF92FF920F931F93FC0107
:100A0000E480F58006811781D1808081823048F4AE
:100A100080E090E0A0E1B0E0E82AF92A0A2B1B2B45
:100A2000A5C0843009F49FC0823021F4EE24FF2455
:100A3000870105C0E114F1040105110519F4E0E096
:100A4000F0E096C0628173819FEF623879070CF005
:100A50005BC022E83FEF261B370B2A3131052CF013
:100A600020E030E040E050E02AC0B801A701022EAB
:100A700004C076956795579547950A94D2F781E01B
:100A800090E0A0E0B0E004C0880F991FAA1FBB1F30
:100A90002A95D2F70197A109B1098E219F21A023A0
:100AA000B1230097A105B10521F081E090E0A0E01D
:100AB000B0E09A01AB01282B392B4A2B5B2BDA01D2
:100AC000C9018F779070A070B07080349105A10536
:100AD000B10539F427FF09C0205C3F4F4F4F5F4FEE
:100AE00004C0215C3F4F4F4F5F4FE0E0F0E020300B
:100AF000A0E03A07A0E04A07A0E45A0710F0E1E0BE
:100B0000F0E079018A0127C06038710564F5FB01C6
:100B1000E158FF4FD801C7018F779070A070B07077
:100B200080349105A105B10539F4E7FE0DC080E4DC
:100B300090E0A0E0B0E004C08FE390E0A0E0B0E07F
:100B4000E80EF91E0A1F1B1F17FF05C01695079513
:100B5000F794E794319687E016950795F794E79414
:100B60008A95D1F705C0EE24FF248701EFEFF0E06E
:100B70006E2F679566276795902F9F77D794DD2412
:100B8000D7948E2F8695492F462B582F5D29B70174
:100B9000CA011F910F91FF90EF90DF900895FC0123
:100BA000DB01408151812281622F6F7770E0221F2B
:100BB0002227221F9381892F880F822B282F30E034
:100BC000991F9927991F11969C931197211531050B
:100BD000A9F5411551056105710511F482E037C091
:100BE00082E89FEF13969C938E9312979A01AB0124
:100BF00067E0220F331F441F551F6A95D1F783E02A
:100C00008C930DC0220F331F441F551F12968D91D8
:100C10009C911397019713969C938E931297203073
:100C200080E0380780E0480780E4580758F31496BE
:100C30002D933D934D935C93179708952F3F310566
:100C400079F4411551056105710519F484E08C931F
:100C5000089564FF03C081E08C9312C01C9210C001
:100C60002F57304013963C932E93129783E08C932A
:100C700087E0440F551F661F771F8A95D1F7706470
:100C800014964D935D936D937C93179708951F93DE
:100C9000DC01FB019C91923008F447C080818230D6
:100CA00008F443C0943051F411961C91843099F5A6
:100CB0008181682F70E0611B71093FC0843021F091
:100CC000923031F48230B9F18181882389F12DC0CD
:100CD00011961C9111978230F1F081811817D9F487
:100CE00012962D913C9113978281938182179307DD
:100CF00094F028173907BCF014968D919D910D90B2
:100D0000BC91A02D24813581468157812817390750
:100D10004A075B0718F4112341F00AC082179307B2
:100D2000A407B50740F4112319F061E070E005C095
:100D30006FEF7FEF02C060E070E0CB011F9108957C
:100D400080EF8ABB8FEF87BB84BB81BB8BBB18BA9C
:100D500015BA12BA0895843008F083C0683008F0DC
:100D600080C040FD42C08130B1F0813030F082302F
:100D700001F1833009F075C02AC0EAE3F0E0208178
:100D800081E090E002C0880F991F6A95E2F7809594
:100D9000822380830895E7E3F0E0208181E090E002
:100DA00002C0880F991F6A95E2F78095822380839D
:100DB0000895E4E3F0E0208181E090E002C0880F34
:100DC000991F6A95E2F78095822380830895E1E375
:100DD000F0E0208181E090E002C0880F991F6A95C1
:100DE000E2F780958223808308958130A1F08130DD
:100DF00028F08230E9F08330A1F527C0EAE3F0E083
:100E0000208181E090E002C0880F991F6A95E2F787
:100E1000282B20830895E7E3F0E0208181E090E033
:100E200002C0880F991F6A95E2F7282B2083089546
:100E3000E4E3F0E0208181E090E002C0880F991F98
:100E40006A95E2F7282B20830895E1E3F0E0208102
:100E500081E090E002C0880F991F6A95E2F7282B85
:100E600020830895843008F083C0683008F080C083
:100E700040FD42C08130B1F0813030F0823001F16C
:100E8000833009F075C02AC0EBE3F0E0208181E0F7
:100E900090E002C0880F991F6A95E2F7809582233F
:100EA00080830895E8E3F0E0208181E090E002C0D3
:100EB000880F991F6A95E2F78095822380830895B1
:100EC000E5E3F0E0208181E090E002C0880F991F07
:100ED0006A95E2F78095822380830895E2E3F0E04B
:100EE000208181E090E002C0880F991F6A95E2F7A7
:100EF00080958223808308958130A1F0813028F08D
:100F00008230E9F08330A1F527C0EBE3F0E02081E7
:100F100081E090E002C0880F991F6A95E2F7282BC4
:100F200020830895E8E3F0E0208181E090E002C0B2
:100F3000880F991F6A95E2F7282B20830895E5E32F
:100F4000F0E0208181E090E002C0880F991F6A954F
:100F5000E2F7282B20830895E2E3F0E0208181E08E
:100F600090E002C0880F991F6A95E2F7282B208332
:100F70000895843080F5683070F5813089F08130D3
:100F800030F08230B1F08330E9F080E0089589B329
:100F900090E002C0959587956A95E2F78170089573
:100FA00086B390E002C0959587956A95E2F78170C7
:100FB000089583B390E002C0959587956A95E2F70E
:100FC0008170089580B390E002C0959587956A95E9
:100FD000E2F7817008958FEF0895843008F03FC0E4
:100FE000683008F03CC08130A1F0813028F08230B8
:100FF000E9F08330A1F527C0EBE3F0E0208181E048
:1010000090E002C0880F991F6A95E2F72827208395
:101010000895E8E3F0E0208181E090E002C0880FCD
:10102000991F6A95E2F7282720830895E5E3F0E009
:10103000208181E090E002C0880F991F6A95E2F755
:10104000282720830895E2E3F0E0208181E090E00A
:1010500002C0880F991F6A95E2F728272083089518
:10106000843008F03FC0683008F03CC08130A1F007
:10107000813028F08230E9F08330A1F527C0EBE31E
:10108000F0E0208181E090E002C0880F991F6A950E
:10109000E2F7282B20830895E8E3F0E0208181E047
:1010A00090E002C0880F991F6A95E2F7282B2083F1
:1010B0000895E5E3F0E0208181E090E002C0880F30
:1010C000991F6A95E2F7282B20830895E2E3F0E068
:1010D000208181E090E002C0880F991F6A95E2F7B5
:1010E000282B20830895813049F0813028F0823008
:1010F00039F0833041F406C06ABB089567BB089598
:1011000064BB089561BB0895813049F0813028F0B7
:10111000823039F0833041F406C06BBB089568BB60
:10112000089565BB089562BB08958F929F92AF9218
:10113000BF92CF92DF92EF92FF921F934B015C011F
:1011400069017A0112161306140615062CF021E027
:1011500030E040E050E017C021E030E040E050E0F7
:1011600011E0CA01B901A50194010E94FB0E9B0187
:10117000AC011F5F812F90E0A0E0B0E0C816D90657
:10118000EA06FB0674F7622F732F842F952F1F91A9
:10119000FF90EF90DF90CF90BF90AF909F908F9097
:1011A0000895EF92FF920F931F93CF93DF93182F21
:1011B00083E060E04FEF0E94320783E061E040E0AF
:1011C0000E943207C4E0D0E00F2EF0EDEF2EF7E0E2
:1011D000FF2EF02D012F10E083E062E04FEF0E9420
:1011E0003207C7010197F1F7A8010C2E02C05595EF
:1011F00047950A94E2F7417083E064E00E94320769
:10120000AE014F5F5F4FC80102C0959587954A9523
:10121000E2F7AC01417083E065E00E943207AE0165
:101220004E5F5F4FC80102C0959587954A95E2F7DA
:10123000AC01417083E066E00E943207AE014D5F71
:101240005F4FC80102C0959587954A95E2F7AC01BA
:10125000417083E067E00E94320783E062E040E093
:101260000E94320724979FEFCC3FD90709F0B4CFF3
:10127000DF91CF911F910F91FF90EF9008956F92A2
:101280007F929F92AF92BF92CF92DF92EF92FF92A6
:101290000F931F93CF93DF935B016C016115710571
:1012A0008105910521F480E30E94D10874C099233F
:1012B00024F0C601B50110E011C08DE20E94D108F2
:1012C000D094C094B094A094A11CB11CC11CD11C9A
:1012D000A114B104C104D10461F75DC01F5F2AE00D
:1012E00030E040E050E00E941A0F822F932FA42F8D
:1012F000B52FBC01CD01611571058105910571F70F
:10130000912E11160CF047C00F2EF4EF6F2EF1E066
:101310007F2EF02DC8ECD0E0E92CFF24E7FCF09400
:101320000894E108F1080027F7FC0095102F6AE007
:1013300070E080E090E0A80197010E9495089B0171
:10134000AC01C601B5010E941A0F822F805D0E9478
:10135000D1086AE070E080E090E0A80197010E9467
:1013600095089B01AC01C601B5010E941A0F372FE9
:10137000482F592F862F932FA42FB52F5C016D0175
:101380009301CE010197F1F721503040D1F79A94A3
:1013900019140CF4C1CFDF91CF911F910F91FF90E1
:1013A000EF90DF90CF90BF90AF909F907F906F9025
:1013B00008959F92AF92BF92CF92DF92EF92FF92E9
:1013C0000F931F937B018C010E9457045B016C01FA
:1013D0000E94F9039B01AC01C801B7010E9495016D
:1013E0007B018C0120E030E040E050E00E94C90326
:1013F000882364F417FB109517F91095A114B10414
:10140000C104D10419F48DE20E94D108C601B501CE
:101410000E943F09C801B70120E030E040E050E001
:101420000E949903882321F18EE20E94D108992419
:10143000C801B70120E030E040E251E40E94F3012E
:101440007B018C010E9457045B016C010E943F09E3
:10145000C601B5010E94F9039B01AC01C801B701A7
:101460000E9495017B018C01939483E0981601F70B
:101470001F910F91FF90EF90DF90CF90BF90AF90B2
:101480009F9008951F93CF93DF93EC018881882369
:1014900051F010E00E94D1081F5FFE01E10FF11D25
:1014A00080818823B9F7DF91CF911F910895EF9242
:1014B000FF920F931F93CF93DF93182F83E060E089
:1014C00040E00E94320783E061E040E00E94320782
:1014D000C4E0D0E00F2EF0EDEF2EF7E0FF2EF02D60
:1014E000012F10E083E062E04FEF0E943207C70156
:1014F0000197F1F7A8010C2E02C0559547950A9463
:10150000E2F7417083E064E00E943207AE014F5F72
:101510005F4FC80102C0959587954A95E2F7AC01E7
:10152000417083E065E00E943207AE014E5F5F4F7D
:10153000C80102C0959587954A95E2F7AC014170C4
:1015400083E066E00E943207AE014D5F5F4FC80145
:1015500002C0959587954A95E2F7AC01417083E00A
:1015600067E00E94320783E062E040E00E943207B9
:1015700024979FEFCC3FD90709F0B4CFDF91CF91EB
:101580001F910F91FF90EF9008950F931F93082FD5
:10159000882339F011E080E10E94570A1F5F01178C
:1015A000D0F71F910F9108950F931F93082F882351
:1015B00039F011E086E10E94570A1F5F0117D0F74A
:1015C0001F910F9108950F931F93082F882339F0CF
:1015D00011E088E10E94570A1F5F0117D0F71F91A1
:1015E0000F9108950F931F93082F882339F011E06E
:1015F0008CE10E94570A1F5F0117D0F71F910F91CE
:1016000008950F931F93CF93DF938B01880F880F5B
:10161000880F805C0E94570AC0E0D0E0F801EC0F10
:10162000FD1F80810E94D1082196C830D105B1F7F5
:10163000DF91CF911F910F910895813019F0823081
:1016400051F405C0862F81580E94570A0895862FAD
:1016500081540E94570A0895FF920F931F93182FE9
:10166000062FF42E805C0E94570A802F6F2D0E9457
:101670001D0B812F0E94D1081F910F91FF9008959B
:101680000F931F9380E69AEE0197F1F783E060E0F5
:1016900040E00E94320783E061E040E00E943207B0
:1016A00083E064E040E00E94320783E065E041E0CF
:1016B0000E94320783E066E040E00E94320783E048
:1016C00067E040E00E94320783E062E04FEF0E9453
:1016D000320700ED17E0C8010197F1F783E062E0FF
:1016E00040E00E94320788E20E94570AC801019731
:1016F000F1F78EE00E94570AC8010197F1F781E0E7
:101700000E94570A80EA9FE00197F1F786E00E9465
:10171000570AC8010197F1F71F910F9108958F9211
:101720009F92BF92CF92DF92EF92FF920F931F93FF
:10173000CF93DF93BB24BA94EE24FF240F2EF0E85E
:101740008F2EF1E09F2EF02D0F2EF0E4CF2EFCE92E
:10175000DF2EF02D0E2D0C5F80E0602F40E00E9408
:101760003207E401CE0DDF1D10E080E0612F0E9402
:10177000B907882351F4B88080E0612F0E94B9072F
:101780008823D1F3C6010197F1F71F5F2496143027
:1017900061F780E0602F4FEF0E9432070894E11C50
:1017A000F11C84E0E816F104A9F68B2DDF91CF91AE
:1017B0001F910F91FF90EF90DF90CF90BF909F907F
:1017C0008F9008954F925F926F927F928F929F9227
:1017D000AF92BF92CF92DF92EF92FF920F931F933F
:1017E000CF93DF936C01EB01642E2901442309F4AC
:1017F000F3C07724E72CFF24F601EE0DFF1DE081F6
:10180000EA3221F0EF3209F08DC022C0C701880F03
:10181000991F880F991F8E01080F191FC701019684
:10182000880F991F880F991FFE01E80FF91FD80133
:101830006D917D918D919C91208131814281538167
:101840000E94F301F80160837183828393832FC028
:10185000C7010196880F991F880F991FFE01E80F95
:10186000F91F80809180A280B380C501B40120E07F
:1018700030E040E050E00E949903882311F48FE0AB
:101880009AC0C701880F991F880F991F8E01080FF2
:10189000191FD8016D917D918D919C91A5019401A5
:1018A0000E94ED02F8016083718382839383862D09
:1018B00090E07C010894E108F108872D90E08E15F6
:1018C0009F0574F5072D202F30E0B9016F5F7F4F22
:1018D000CB01880F991F880F991FAE01480F591F20
:1018E000C9010296880F991F880F991FFE01E80F02
:1018F000F91F80819181A281B381FA018083918354
:10190000A283B383D601A20FB31FF601E60FF71F20
:1019100080818C930F5F802F90E08E159F059CF245
:101920006A9401C07394761408F464CF8881998115
:10193000AA81BB81F20180839183A283B383662055
:10194000C9F10C2D7E012C2D3D2DE90188818B32B2
:1019500099F4D2016D917D918D919C91F701248133
:101960003581468157810E94C601D2016D937D93D6
:101970008D939C93139715C08D3299F4F201608179
:10198000718182819381D70114962D913D914D9162
:101990005C9117970E949501F201608371838283A5
:1019A0009383219624E030E0E20EF31EDE01A01BBB
:1019B000A61560F28FEFDF91CF911F910F91FF90ED
:1019C000EF90DF90CF90BF90AF909F908F907F90DF
:1019D0006F905F904F90089588819981AA81BB8113
:1019E000F90180839183A283B3838FEFE4CF2F9299
:1019F0003F924F925F926F927F928F929F92AF929F
:101A0000BF92CF92DF92EF92FF920F931F93DF93DB
:101A1000CF93CDB7DEB7CD59D0400FB6F894DEBF27
:101A20000FBECDBFA82EC856DF4F79836883C85933
:101A3000D04080E090E0A0E0B0E0FB0180839183A3
:101A4000A283B383FE0131968EE1DF011D928A9558
:101A5000E9F7FE017F9688E7DF011D928A95E9F795
:101A600081E00E94570AAA2009F4EFC010E0332455
:101A7000C956DF4F1882C759D04022240F2EF0E9F3
:101A80006F2EF1E07F2EF02D212F30E0F301E20FD9
:101A9000F31FB0808B2D80538A3008F4F1C06AC0E8
:101AA000F601608171818281938120E030E040E223
:101AB00051E40E94F301C656DF4F688379838A831D
:101AC0009B83CA59D040602F70E0605370408827D4
:101AD00077FD8095982F0E94F9039B01AC01C656B3
:101AE000DF4F688179818A819B81CA59D0400E94E9
:101AF000C601D6016D937D938D939C9313971F5FC1
:101B0000F301E10FF11D0081802F80538A3098F09E
:101B100015C0C201880F991F880F991FE1E0F0E0FE
:101B2000EC0FFD1F8E0F9F1F0F2EFEE1CF2EDD2429
:101B3000F02DC80ED91E1A1508F4B2CFF1E02F16F9
:101B4000B9F4832D90E0880F991F880F991FE1E069
:101B5000F0E0EC0FFD1FE80FF91F7E968081918168
:101B6000A281B381B05880839183A283B38322245E
:101B7000339447C01123E9F48BE2B81651F4F30112
:101B8000E20FF31F818180538A3008F05EC011E0BC
:101B900038C0ADE2BA1609F058C0F301E20FF31FE6
:101BA000818180538A3008F050C011E022242394B0
:101BB00028C0E1E0F0E0EC0FFD1FC956DF4FB8810F
:101BC000C759D040EB0FF11DB082BF5FC956DF4F40
:101BD000B883C759D040F301E20FF31F9181892FD9
:101BE00080538A3010F41F5F0CC09D3271F5F301F1
:101BF000E20FF31F828180538A3038F51E5F222462
:101C000023941A1508F440CFC956DF4FE881C7590D
:101C1000D0408E2F90E00196232D30E0821793075D
:101C2000A1F4CE010196BE01615E7F4F4E2FC856D2
:101C3000DF4F28813981C859D0400E94E20B8F3094
:101C400011F08FEF03C08FE001C080E0C356DF4F7B
:101C50000FB6F894DEBF0FBECDBFCF91DF911F91BD
:101C60000F91FF90EF90DF90CF90BF90AF909F903B
:101C70008F907F906F905F904F903F902F9008953E
:101C80001A1508F05BCF432C5524C201880F991F09
:101C9000880F991F21E030E02C0F3D1F820F931F0A
:101CA0000F2EFEE18F2E9924F02D880E991ED4015F
:101CB0006D917D918D919C9120E030E040E251E466
:101CC0000E94F3016B017C016B2D70E0605370404A
:101CD000882777FD8095982F0E94F9039B01AC011E
:101CE000C701B6010E94C601F4016083718382833B
:101CF00093831F5FF301E10FF11D0081802F80535B
:101D00008A3008F406CF1ACF6F927F928F929F92FB
:101D1000AF92BF92DF92EF92FF920F931F93DF93E8
:101D2000CF9300D000D0CDB7DEB70E94A0060E94AE
:101D3000400B80E090E0A0E0B0E089839A83AB8321
:101D4000BC8300E00F2EF0E9EF2EF1E0FF2EF02D26
:101D5000DD245E010894A11CB11C0F2EFDE68F2E20
:101D6000F0E09F2EF02D0F2EF0E66F2EF0E07F2E8C
:101D7000F02D01C00D2D0E948F0B182F8F3FD9F32E
:101D80008D33F1F40023B9F3802FB5010E94F70CD5
:101D9000882329F4C3010E94420A0D2DECCF8F3015
:101DA00029F4C4010E94420A0D2DE5CF8F3F11F79F
:101DB00069817A818B819C810E94D9090D2DDBCFAD
:101DC000803229F481E00E94570A0D2DD4CF0023E0
:101DD00021F481E00E94570A05C0003118F081E02B
:101DE0000E94E30A812F0E94D108F701E00FF11D44
:101DF00010830F5FC0CF629FD001739FF001829F5D
:101E0000E00DF11D649FE00DF11D929FF00D839F89
:101E1000F00D749FF00D659FF00D9927729FB00D26
:101E2000E11DF91F639FB00DE11DF91FBD01CF0139
:101E30001124089597FB092E05260ED057FD04D0D6
:101E400014D00AD0001C38F4509540953095219557
:101E50003F4F4F4F5F4F0895F6F7909580957095DF
:101E600061957F4F8F4F9F4F0895A1E21A2EAA1BB5
:101E7000BB1BFD010DC0AA1FBB1FEE1FFF1FA2173A
:101E8000B307E407F50720F0A21BB30BE40BF50B37
:101E9000661F771F881F991F1A9469F760957095C0
:101EA000809590959B01AC01BD01CF0108952F92C3
:101EB0003F924F925F926F927F928F929F92AF92DA
:101EC000BF92CF92DF92EF92FF920F931F93CF9327
:101ED000DF93CDB7DEB7CA1BDB0B0FB6F894DEBFBE
:101EE0000FBECDBF09942A88398848885F846E84E4
:101EF0007D848C849B84AA84B984C884DF80EE802E
:101F0000FD800C811B81AA81B981CE0FD11D0FB636
:101F1000F894DEBF0FBECDBFED010895F894FFCF5A
:101F200053796E7461785F4572726F72004D61749F
:101F3000685F4572726F72000000000000000000D0
:101F40000001020203030303040404040404040460
:101F50000505050505050505050505050505050531
:101F60000606060606060606060606060606060611
:101F70000606060606060606060606060606060601
:101F800007070707070707070707070707070707E1
:101F900007070707070707070707070707070707D1
:101FA00007070707070707070707070707070707C1
:101FB00007070707070707070707070707070707B1
:101FC0000808080808080808080808080808080891
:101FD0000808080808080808080808080808080881
:101FE0000808080808080808080808080808080871
:101FF0000808080808080808080808080808080861
:102000000808080808080808080808080808080850
:102010000808080808080808080808080808080840
:102020000808080808080808080808080808080830
:102030000808080808080808080808080808080820
:102040003738392F3435362A3132332D20303D2B75
:00000001FF
